:1000000025C049C048C047C046C0C2C344C043C061
:1000100042C041C040C03FC03EC03DC03CC00102E4
:100020000000040000000000010204081020200469
:100030001008020202020202020202020000000094
:10004000380000000000370098019F0111241FBEF6
:10005000CFE5D2E0DEBFCDBF20E0A6E6B0E001C034
:100060001D92AA38B207E1F710E0A0E6B0E0EAED91
:10007000FEE002C005900D92A636B107D9F710E058
:10008000C5E2D0E003C02197FE01B3D5C432D10749
:10009000D1F7E4D416C7B4CF0F931F93CF9389E061
:1000A00046D48C0189E043D48C32914034F0C1E0D5
:1000B0000C3711401CF0C0E001C0C2E089E037D429
:1000C000803F91050CF4C3E08C2FCF911F910F91CD
:1000D00008952DD465E270E0D5D46AE170E0E3D4F0
:1000E000CB016115744010F08FEF93E00895982FC5
:1000F0009095953550F4892F63E0BBD4482F892F14
:100100006DEFB7D460E0815019C09A3A60F495550C
:10011000892F6DEFAED44FEF480F892F63E0A9D43C
:10012000682F80E00BC09A5A892F6DEFA2D42FEF71
:10013000280F892F63E09DD440E0622FDDC24F92EB
:100140005F926F927F928F929F92AF92BF92CF9267
:10015000DF92EF92FF920F931F93CF93DF93662E60
:10016000712C762C662400E010E043E1E42EF12CA3
:10017000C12CDD24D394AA24AA9463E0B62E88244B
:100180008394912C0615170509F447C0C0E0D0E010
:100190009C2F80E0B70187D4862F800FA8DF9B01BA
:1001A000AC01BE0188E690E02ED22196C331D10584
:1001B00079F787E08EDF9695879596958795260146
:1001C000481A590A8FEF4816510418F044244A94EB
:1001D000512C88E07EDFEC01642D88E690E09BD214
:1001E00088E690E02FD1B5016C1B7D0B660F672F61
:1001F000661F770B719580E090E03AD34DDF823037
:1002000029F4109267001092660004C09092670073
:10021000809266000F5F1F4FB5CFDF91CF911F9186
:100220000F91FF90EF90DF90CF90BF90AF909F9095
:100230008F907F906F905F904F9008958F929F92D4
:10024000AF92BF92CF92DF92EF92FF92CF93DF9364
:1002500000D000D0CDB7DEB76B017C0149015A0157
:1002600060E271EA87E090E0A701960130D469016D
:100270007A01C501B40128EE33E040E050E065D4D6
:10028000A32FF42FE52F622F7A2F8F2F9E2FA701F8
:1002900096011DD4A12CB12CC501A0E0B0E08217BD
:1002A0009307A407B50790F4C19AC60129833A833E
:1002B0004B835C8316D3C198C60113D38FEFA81A62
:1002C000B80A5C814B813A812981E6CF0F900F906B
:1002D0000F900F90DF91CF91FF90EF90DF90CF9034
:1002E000BF90AF909F908F90089520E030E080E81D
:1002F0000FB6F89486BD26BD0FBE88E690E034D0D8
:1003000068E288E690E007D261E081E03CD324E631
:1003100030E040E050E068EE73E080E090E08EDF97
:100320001092670010926600089561E083E007CFA5
:1003300022E540E068E070E088E690E03FC188E6B2
:1003400090E000C0CF93DF93EC018F8198850097F8
:1003500009F018D58D8187FD04C060E0DF91CF9151
:1003600012C3DF91CF910895CF93DF93EC018D817C
:1003700087FD05C061E007D360E08D8140D381E057
:100380008883DF91CF910895EF92FF920F931F938F
:10039000CF93DF93EC017B018F819885009709F063
:1003A000F1D49C858985981719F084E090E002C00B
:1003B00083E090E0B70166D38C019C838B834DD49E
:1003C00098878F83009739F0A80160E070E072D5BC
:1003D000FA82E98204C01C821B821A821982DF9190
:1003E000CF911F910F91FF90EF900895FC0141E094
:1003F00094858185981340E0562F529556955695D1
:1004000053705487862F90E09C0174E035952795B2
:100410007A95E1F72370218795958795959587952E
:10042000837082876370638787819085892B49F009
:1004300081E0521380E0841721F061817281CF0145
:10044000A3CF0895BF92CF92DF92EF92FF920F93C6
:100450001F93CF93DF93CDB7DEB727970FB6F894EE
:10046000DEBF0FBECDBF8C01DC0117968D919C9134
:100470001897892B09F463C0D5D1F801C584D684B7
:10048000E784F088DC01CB018C199D09AE09BF0916
:100490008C329140A105B10578F3F894D8011396F8
:1004A0008D919C9114979A8389831796ED91FC9175
:1004B0001897AF014F5F5F4F80818F835196ED9109
:1004C000FC915297908153968C91982B9E839081AA
:1004D000809589238D838D818C8388E08B833E81F9
:1004E0006D818F812B819C81A981BA81782FB92E52
:1004F000CD01DA01308377FDB32E2A95B082B62E76
:1005000039F0771F00C000006083000000C0F2CF08
:1005100028E07D9160830000019761F7D801529631
:10052000FC93EE9351977F832B83BC829A838983BC
:10053000789478D1F801658776878787908B27969E
:100540000FB6F894DEBF0FBECDBFDF91CF911F91E4
:100550000F91FF90EF90DF90CF90BF9008951F9381
:10056000CF93DF93EC01162F8881882329F08D81AA
:1005700087FD02C060E007D21D838881882331F0A7
:1005800061E0812F00D260E0812F39D2812F90E08D
:10059000FC01EE5CFF4FE491F0E0EE0FFF1FE45C26
:1005A000FF4F259134913A8B298BFC01E85DFF4F79
:1005B000E491EB8BDF91CF911F910895EF92FF9221
:1005C0000F931F93CF93DF931F92CDB7DEB77C01BC
:1005D0008B01FC0110821682108617821586168602
:1005E0001786108A622F498301DFB801C701CCDE6C
:1005F0004981642FC7010F90DF91CF911F910F9117
:10060000FF90EF90ACCF4F925F926F927F928F925C
:100610009F92AF92BF92DF92EF92FF920F931F9340
:10062000CF93DF93FC01EB0189019A0181819281D3
:100630006817790708F050C0290166247724D42C64
:10064000812E922EA32EBB24E82CF02E468144232B
:1006500089F0A42FB0E0842D90E0BD0113D2D92EF3
:10066000882D90E0BD010ED2E92E802F90E0BD01D3
:1006700009D2F92E84859185A781B085891307C099
:10068000CE0163E070E0FED1A80FB91F17C0CC0FF8
:10069000DD1FCC0FDD1FAC0FBD1F032F112722273D
:1006A0003327ED01C80FD11D442331F0642F70E0D2
:1006B000802F90E0E7D101C0902F98838185ED01D4
:1006C000C80FD11DD8828285ED01C80FD11DE882E7
:1006D0008385A80FB11DFC92DF91CF911F910F91DF
:1006E000FF90EF90DF90BF90AF909F908F907F90A2
:1006F0006F905F904F9008950F931F93962F50E047
:1007000060E070E0592B8A019B01282BC901B801D8
:100710001F910F910895FF920F931F93CF93DF9333
:10072000EC01FF24F394F60E2E81F21659F10F819D
:1007300018852150A9F06F3F49F430E040E050E0C7
:100740006FEF7FEF80E090E0E4D10CC08F2D90E060
:10075000982F88270197622F70E0A5D19B0102C0D6
:1007600020E030E0F8014B815C81CF01801B910BD0
:100770008417950730F4808190E0B90183D191937B
:10078000F2CFFE82DF91CF911F910F91FF900895DC
:100790001F920F920FB60F9211242F933F938F93B6
:1007A0009F93AF93BF9380917D0090917E00A09125
:1007B0007F00B091800030917C0023E0230F2D3723
:1007C00020F40196A11DB11D05C026E8230F029655
:1007D000A11DB11D20937C0080937D0090937E002D
:1007E000A0937F00B093800080918100909182005F
:1007F000A0918300B09184000196A11DB11D80934A
:10080000810090938200A0938300B0938400BF91F5
:10081000AF919F918F913F912F910F900FBE0F90AD
:100820001F9018953FB7F8948091810090918200B5
:10083000A0918300B091840022B708B601FE05C0E4
:100840002F3F19F00196A11DB11D3FBFBA2FA92F4F
:10085000982F8827820F911DA11DB11DBC01CD01CC
:1008600042E0660F771F881F991F4A95D1F70895B8
:100870008F929F92AF92BF92CF92DF92EF92FF92B0
:100880006B017C01CFDF4B015C01C114D104E10499
:10089000F104F1F0EDD0C6DFDC01CB018819990934
:1008A000AA09BB09883E9340A105B10570F321E078
:1008B000C21AD108E108F10888EE880E83E0981E7C
:1008C000A11CB11CC114D104E104F10421F7DDCF56
:1008D000FF90EF90DF90CF90BF90AF909F908F9060
:1008E00008958230910538F0880F991F880F991F5D
:1008F00005970197F1F7089578948AB582608ABDCB
:100900008AB581608ABD83B7826083BF83B7816007
:1009100083BF89B7826089BF80B7826080BF80B79C
:10092000816080BF329A319A309A379A0895863022
:1009300008F086508770909185009295907F892B62
:1009400087B9369A3699FECF84B125B190E0922BC3
:100950000895823081F018F4813051F00895833089
:1009600019F0843009F008958CB58F7D8CBD089501
:100970008AB58F7702C08AB58F7D8ABD08958CB500
:1009800080648CBD0895CF93DF9390E0FC01E85D17
:10099000FF4F2491FC01EE5CFF4F8491882361F1AD
:1009A00090E0880F991FFC01EE5BFF4FC591D49139
:1009B000FC01E45CFF4FA591B491611109C09FB7A0
:1009C000F8948881209582238883EC912E230BC094
:1009D000623061F49FB7F8943881822F8095832329
:1009E0008883EC912E2B2C939FBF06C08FB7F89471
:1009F000E8812E2B28838FBFDF91CF9108951F931D
:100A0000CF93DF93282F30E0F901E25EFF4F84910E
:100A1000F901E85DFF4FD491F901EE5CFF4FC491FD
:100A2000CC23C1F0162F811194DFEC2FF0E0EE0FF4
:100A3000FF1FE45CFF4FA591B4918FB7F89411119B
:100A400005C09C91ED2FE095E92302C0EC91ED2BC0
:100A5000EC938FBFDF91CF911F9108954DDF8FDF12
:100A600044DCC0E0D0E061DC2097E9F3C9DAFBCFD9
:100A70000895002480FD060E660F11F08695D1F7CB
:100A8000802D08950024552704C0080E591F880F93
:100A9000991F009729F076956795B8F37105B9F716
:100AA000802D952F0895AA1BBB1B51E107C0AA1FDB
:100AB000BB1FA617B70710F0A61BB70B881F991FFF
:100AC0005A95A9F780959095BC01CD010895A1E2B2
:100AD0001A2EAA1BBB1BFD010DC0AA1FBB1FEE1FB8
:100AE000FF1FA217B307E407F50720F0A21BB30B03
:100AF000E40BF50B661F771F881F991F1A9469F77F
:100B000060957095809590959B01AC01BD01CF01DA
:100B10000895052E97FB16F400940FD057FD05D0CD
:100B2000D6DF07FC02D046F408C0509540953095BA
:100B300021953F4F4F4F5F4F089590958095709549
:100B400061957F4F8F4F9F4F089568940013E894ED
:100B5000A0E0B0E0EDEAF5E01DC0EFEFE7F95901E4
:100B60006A015E23550FEE08FE2C87019B01AC0144
:100B70009E23990F660B762FCB0141D0CDB7DEB700
:100B8000EAE024C02F923F924F925F926F927F9241
:100B90008F929F92AF92BF92CF92DF92EF92FF928D
:100BA0000F931F93CF93DF93CDB7DEB7CA1BDB0B39
:100BB0000FB6F894DEBF0FBECDBF09942A883988DE
:100BC00048885F846E847D848C849B84AA84B984E5
:100BD000C884DF80EE80FD800C811B81AA81B981F1
:100BE000CE0FD11D0FB6F894DEBF0FBECDBFED0105
:100BF0000895EE0FFF1F0590F491E02D0994DF9307
:100C0000CF939F92A0E49A2E0024D001E001F0013E
:100C100016950795F794E794D794C794B794A7943B
:100C200048F41068A20FB31FC41FD51FE61FF71F9B
:100C3000081E191E220F331F441F551F661F771FE2
:100C4000881F991F9A9421F79D01AE01BF01C00131
:100C500011249F90CF91DF910895CF93DF9382303D
:100C6000910510F482E090E0E0918800F091890015
:100C700020E030E0C0E0D0E0309711F140815181B8
:100C800048175907C0F04817590761F482819381CA
:100C9000209719F09B838A832BC0909389008093BF
:100CA000880026C02115310519F04217530718F4A2
:100CB0009A01BE01DF01EF010280F381E02DDCCF5C
:100CC0002115310509F1281B390B2430310590F429
:100CD00012968D919C9113976115710521F0FB017E
:100CE0009383828304C09093890080938800FD01E0
:100CF000329644C0FD01E20FF31F8193919322507D
:100D000031092D933C933AC02091860030918700A1
:100D1000232B41F4209162003091630030938700CF
:100D200020938600209160003091610021153105EB
:100D300041F42DB73EB74091640050916500241BEB
:100D4000350BE0918600F0918700E217F307A0F4DD
:100D50002E1B3F0B2817390778F0AC014E5F5F4F11
:100D60002417350748F04E0F5F1F509387004093BC
:100D700086008193919302C0E0E0F0E0CF01DF9123
:100D8000CF9108950F931F93CF93DF93009709F4AA
:100D90008CC0FC013297138212820091880010915E
:100DA00089000115110581F420813181820F931F83
:100DB00020918600309187002817390779F5F09344
:100DC0008700E093860071C0D80140E050E0AE1784
:100DD000BF0750F412962D913C911397AD01211548
:100DE000310509F1D901F3CF9D01DA013383228363
:100DF00060817181860F971F8217930769F4EC0158
:100E000028813981260F371F2E5F3F4F3183208382
:100E10008A819B8193838283452B29F4F0938900F7
:100E2000E093880042C01396FC93EE931297ED0175
:100E3000499159919E01240F351FE217F30771F470
:100E400080819181840F951F029611969C938E93B9
:100E50008281938113969C938E931297E0E0F0E049
:100E6000D80112968D919C911397009719F0F80173
:100E70008C01F6CF8D919C9198012E5F3F4F820F90
:100E8000931F20918600309187002817390769F455
:100E9000309729F4109289001092880002C01382C2
:100EA00012821093870000938600DF91CF911F91EB
:100EB0000F910895DC0101C06D9341505040E0F75F
:100EC000089510E0C5E2D0E003C0FE0192DE219655
:0A0ED000C632D107D1F7F894FFCF26
:060EDA0000008A00800008
:00000001FF
